S012000061746D656761333238702E7372656396
S11300000C9434000C9451000C9451000C94510045
S11300100C9451000C9451000C9451000C94510018
S11300200C9451000C9451000C9451000C94510008
S11300300C9451000C9451000C9451000C945100F8
S11300400C9451000C9451000C9452010C945100E6
S11300500C9451000C9451000C9451000C945100D8
S11300600C9451000C94510011241FBECFEFD8E022
S1130070DEBFCDBF11E0A0E0B1E0E4E3F3E002C0F5
S113008005900D92A231B107D9F721E0A2E1B1E0C8
S113009001C01D92A331B207E1F70E9440010C9404
S11300A098010C9400001092B90084E18093B80088
S11300B084E08093BC00089584EA8093BC0080911E
S11300C0BC008823E4F7089584E98093BC008FE999
S11300D09FE00197F1F700C0000008958093BB00F2
S11300E084EC8093BC008091BC008823E4F70895DD
S11300F00E945C008EE40E946E008FEF0E946E00EE
S11301002FEF89EF90E0215080409040E1F700C04C
S1130110000084E30E946E0080E30E946E008FE37F
S11301209CE90197F1F700C0000084E30E946E008F
S113013080E30E946E008FE99FE00197F1F700C011
S1130140000084E30E946E0080E30E946E008FE949
S11301509FE00197F1F700C0000084E20E946E0066
S113016080E20E946E008FE99FE00197F1F700C0E2
S113017000000E9464000895CF93DF93C82F0E946B
S11301805C008EE40E946E00DC2FD07F8D2F8C608B
S11301900E946E008D2F88600E946E0080E1C89FCF
S11301A0E00111248C2F8C600E946E008C2F0E9421
S11301B06E000E9464008FE39FE10197F1F700C095
S11301C000008FE39FE10197F1F700C00000DF9189
S11301D0CF9108950E9453000E9478008CE20E94FF
S11301E0BC008CE00E94BC0086E00E94BC0080E859
S11301F00E94BC000895CF93DF93C82F0E945C0037
S11302008EE40E946E00DC2FD07F8D2F8D600E94C3
S11302106E008D2F89600E946E0080E1C89FE0010E
S113022011248C2F8D600E946E008C2F89600E9497
S11302306E000E9464008FE39FE10197F1F700C014
S113024000008FE39FE10197F1F700C00000DF9108
S1130250CF9108950F931F93CF93DF938C01C0E048
S1130260D0E003C00E94FB002196F801EC0FFD1FB3
S113027080818111F7CFDF91CF911F910F91089564
S113028080E190E00E9481010E94EA0080E091E018
S11302900E942A01FFCF9091C00095FFFCCF80936C
S11302A0C60008951F920F920FB60F9211242F9338
S11302B03F934F935F936F937F938F939F93AF93EA
S11302C0BF93EF93FF938091C6008093120180E463
S11302D090E00E944B018091120190E00E944B013A
S11302E0FF91EF91BF91AF919F918F917F916F910A
S11302F05F914F913F912F910F900FBE0F901F90E0
S11303001895E2ECF0E020812F73208322E0209303
S1130310C0009093C5008093C40086E08083E1EC24
S1130320F0E088E1808378948081806880830895F8
S1070330F894FFCF6B
S1130334546F646F7320726570726F6261646F735B
S10503440000B3
S90300B844
