:100000000C94B1000C94CE000C94CE000C94CE0055
:100010000C94CE000C94CE000C94CE000C94CE0028
:100020000C94CE000C94CE000C94CE000C94CE0018
:100030000C94CE000C94CE000C94CE000C94CE0008
:100040000C94CE000C94CE000C945E020C94CE0066
:100050000C94CE000C94D0000C94CE000C94CE00E6
:100060000C94CE000C94CE0000407A10F35A00A0FD
:10007000724E18090010A5D4E80000E87648170071
:1000800000E40B54020000CA9A3B000000E1F505B1
:10009000000080969800000040420F000000A086FB
:1000A00001000000102700000000E803000000002D
:1000B0006400000000000A000000000001000000D1
:1000C00000002C76D888DC674F0823DFC1DFAE59EB
:1000D000E1B1B796E5E3E453C63AE651997696E87E
:1000E000E6C28426EB898C9B62ED407C6FFCEFBC02
:1000F0009C9F40F2BAA56FA5F490055A2AF75C932D
:100100006B6CF9676DC11BFCE0E40D47FEF520E662
:10011000B500D0ED902E0300943577050080841E45
:10012000080000204E0A000000C80C333333330FA0
:10013000986E12831141EF8D2114893BE65516CF3D
:10014000FEE6DB18D1844B381BF77C1D901DA4BB49
:10015000E424203284725E228100C9F124ECA1E5FE
:100160003D2711241FBECFEFD8E0DEBFCDBF11E089
:10017000A0E0B1E0E2EDFAE002C005900D92AA30F5
:10018000B107D9F721E0AAE0B1E001C01D92AB3080
:10019000B207E1F70E9449020C9467050C94000035
:1001A0001F920F920FB60F9211240F931F932F934C
:1001B0003F934F935F936F937F938F939F93AF93EF
:1001C000BF93EF93FF93CF93DF93CDB7DEB72A971B
:1001D000DEBFCDBF809178002091790030E0220F02
:1001E000331F220F331F8295869586958370282BA7
:1001F00046E9429FC001439F900D112463E371E0E3
:100200000E94CA0280E090E00E948D028E010F5F82
:100210001F4F21E044E00E94DE0261E089E00E947D
:100220002902C8010E9433028FED0E94FA0182E088
:1002300091E00E943302EAE7F0E0808180648083ED
:100240002A960FB6F894DEBF0FBECDBFDF91CF91D7
:10025000FF91EF91BF91AF919F918F917F916F919E
:100260005F914F913F912F911F910F910F900FBE72
:100270000F901F901895EAE7F0E0808180688083F6
:10028000808187608083ACE7B0E08C9180628C9342
:100290008C9180648C93808188608083808180646D
:1002A000808308951092B90084E18093B80084E0BF
:1002B0008093BC00089584EA8093BC008091BC00C8
:1002C0008823E4F7089584E98093BC008FE99FE0D8
:1002D0000197F1F700C0000008958093BB0084EC03
:1002E0008093BC008091BC008823E4F708950E94AD
:1002F0005B018EE40E946D018FEF0E946D012FEF74
:1003000089EF90E0215080409040E1F700C000006C
:1003100084E30E946D0180E30E946D018FE39CE9FC
:100320000197F1F700C0000084E30E946D0180E3B3
:100330000E946D018FE99FE00197F1F700C0000076
:1003400084E30E946D0180E30E946D018FE99FE0CC
:100350000197F1F700C0000084E20E946D0180E285
:100360000E946D018FE99FE00197F1F700C0000046
:100370000E9463010895CF93DF93C82F0E945B0111
:100380008EE40E946D01DC2FD07F8D2F8C600E9447
:100390006D018D2F88600E946D0180E1C89FE00192
:1003A00011248C2F8C600E946D018C2F0E946D0196
:1003B0000E9463018FE39FE10197F1F700C0000005
:1003C0008FE39FE10197F1F700C00000DF91CF912B
:1003D00008950E9452010E9477018CE20E94BB01A5
:1003E0008CE00E94BB0186E00E94BB0180E80E9475
:1003F000BB010895CF93DF93C82F0E945B018EE469
:100400000E946D01DC2FD07F8D2F8D600E946D01C9
:100410008D2F89600E946D0180E1C89FE001112449
:100420008C2F8D600E946D018C2F89600E946D0160
:100430000E9463018FE39FE10197F1F700C0000084
:100440008FE39FE10197F1F700C00000DF91CF91AA
:100450000895E62FF0E0E150FF4F9081890F815819
:100460000E94BB0108950F931F93CF93DF938C01DC
:10047000C0E0D0E003C00E94FA012196F801EC0F21
:10048000FD1F80818111F7CFDF91CF911F910F91D7
:1004900008950E943B010E94E90161E084E00E940E
:1004A000290284E091E00E9433027894FFCF90917A
:1004B000C00095FFFCCF8093C60008951F920F9255
:1004C0000FB60F9211242F933F934F935F936F9327
:1004D0007F938F939F93AF93BF93EF93FF938091FD
:1004E000C60080930A0180E490E00E945702809148
:1004F0000A0190E00E945702FF91EF91BF91AF91E6
:100500009F918F917F916F915F914F913F912F912B
:100510000F900FBE0F901F901895E89409C097FB9D
:100520003EF490958095709561957F4F8F4F9F4FCA
:100530009923A9F0F92F96E9BB279395F69587950E
:1005400077956795B795F111F8CFFAF4BB0F11F4D1
:1005500060FF1BC06F5F7F4F8F4F9F4F16C0882378
:1005600011F096E911C0772321F09EE8872F762FAE
:1005700005C0662371F096E8862F70E060E02AF0EF
:100580009A95660F771F881FDAF7880F96958795DB
:1005900097F90895AA1BBB1B51E107C0AA1FBB1FF7
:1005A000A617B70710F0A61BB70B881F991F5A95FF
:1005B000A9F780959095BC01CD010895EF920F9316
:1005C0001F93CF93DF93E80147FD02C034E001C0E1
:1005D00034E1042E000C550B57FF03C05195419593
:1005E0005109E32E022F242FAE010E94FE02CE01FC
:1005F000DF91CF911F910F91EF900895A9E0B0E0A6
:10060000E4E0F3E00C9436056A01122FB02E2BE3E0
:10061000201720F0FF24F394F00E02C02CE3F22EFA
:100620000F2D27E0AE014F5F5F4F0E945804BC01C1
:100630004981842F8970813031F0E1FC06C0E0FEF1
:1006400006C090E205C09DE203C09BE201C090E0BD
:100650005E2D507143FF3CC0911102C083E001C088
:1006600084E0811718F4212F281B01C020E05111CC
:100670000BC0F601822F30E2882319F031938150AC
:10068000FBCFC20ED11C20E0992329F0D6019C9308
:10069000F60131966F01C6010396E2FE0AC03EE400
:1006A000D6013C9341E411964C93119712963C93DA
:1006B00006C03EE6F601308341E641833283FC0109
:1006C000322F40E2332309F442C041933150FACF34
:1006D00042FF44C0911102C083E001C084E0811751
:1006E00018F4212F281B01C020E051110BC0F60186
:1006F000822F30E2882319F031938150FBCFC20E54
:10070000D11C20E0992329F0D6019C93F601319663
:100710006F01C6010396E2FE0BC039E4D6013C939B
:100720003EE411963C93119736E412963C9307C031
:1007300039E6F60130833EE6318336E63283FC014A
:10074000322F40E2332319F041933150FBCFFC01AB
:10075000E20FF11D10828EEF9FEFA6C021E030E086
:10076000911102C020E030E0161617061CF4FB01C0
:10077000319602C0E1E0F0E02E0F3F1FBB2021F0D8
:10078000EB2DF0E0319602C0E0E0F0E02E0F3F1FCD
:10079000E12FF0E02E173F071CF4121B212F01C0A0
:1007A00020E08E2D887159F4F601822F30E28823E3
:1007B00019F031938150FBCFC20ED11C20E0992358
:1007C00029F0D6019C93F60131966F0151110BC0AF
:1007D000F601822F90E3882319F091938150FBCF8B
:1007E000C20ED11C20E00F2D060F9A81342F3071DC
:1007F00044FF03C0913309F40150101624F409306A
:1008000018F008E001C001E0AB0177FF02C040E052
:1008100050E0FB01E41BF50BA1E0B0E0AC0FBD1F05
:10082000EA0FFB1F8EE2A82E4B01801A91080B2DB8
:1008300010E01195019511094F3FBFEF5B0721F4BF
:10084000D601AC9211966D01641775072CF08416D1
:10085000950614F4818101C080E34150510931961D
:10086000D60111967D014017510724F0D6018C93D3
:100870006701E2CF6417750739F4963320F4953396
:1008800019F4311101C081E3F6018083F701822F51
:1008900090E2882319F091938150FBCFF701E20F8A
:1008A000F11D108280E090E02996ECE00C94520556
:1008B000283008F027E03327DA01990F311D87FD32
:1008C000916000966105710539F432602E5F3D93A9
:1008D00030E32A95E1F708959F3F30F080387105A5
:1008E000610509F03C5F3C5F3D93913008F0806802
:1008F000911DDF93CF931F930F93FF92EF92192FC8
:10090000987F9695E92F96959695E90FFF27EE53D8
:10091000FF4F99273327EE24FF24A701E701059015
:100920000894079428F4360FE71EF81E491F511D3E
:10093000660F771F881F991F0694A1F705900794EB
:1009400028F4E70EF81E491F561FC11D770F881F98
:10095000991F661F0694A1F70590079428F4F80ED6
:10096000491F561FC71FD11D880F991F661F771F6C
:100970000694A1F70590079420F4490F561FC71F4E
:10098000D81F990F661F771F881F0694A9F78491B7
:100990001095177041F0D695C79557954795F794E0
:1009A000E7941A95C1F7E8E6F0E068941590159180
:1009B00035916591959105907FE27395E118F10A63
:1009C000430B560BC90BD009C0F7E10CF11E431FB6
:1009D000561FC91FD01D7EF4703311F48A95E6CFDF
:1009E000E894015030F0080F0AF40027021708F4C9
:1009F000202F2395022F7A3328F079E37D932A95CF
:100A0000E9F710C07D932A9589F606949795679526
:100A1000379517951794E118F10A430B560BC90B3C
:100A2000D00998F023957E9173957A3308F070E39E
:100A30007C932013B8F77E9170617D9330F083959D
:100A400071E37D9370E32A95E1F71124EF90FF9015
:100A50000F911F91CF91DF91992787FD9095089570
:100A60002F923F924F925F926F927F928F929F92BE
:100A7000AF92BF92CF92DF92EF92FF920F931F93AC
:100A8000CF93DF93CDB7DEB7CA1BDB0B0FB6F8945D
:100A9000DEBF0FBECDBF09942A88398848885F849D
:100AA0006E847D848C849B84AA84B984C884DF800E
:100AB000EE80FD800C811B81AA81B981CE0FD11DF2
:100AC0000FB6F894DEBF0FBECDBFED010895F894C8
:020AD000FFCF56
:0A0AD2000040430054454D503A0027
:04000003000002B641
:00000001FF
