:100000000C9434000C9446000C9446000C9446006A
:100010000C9446000C9446000C9446000C94460048
:100020000C9446000C9446000C9446000C94460038
:100030000C9446000C9446000C9446000C94460028
:100040000C9446000C9446000C9454000C9446000A
:100050000C9446000C9446000C9446000C94460008
:100060000C9446000C94460011241FBECFEFD8E03C
:10007000DEBFCDBF21E0A0E0B1E001C01D92A13004
:10008000B207E1F70E9448000C949A000C9400001B
:100090008FEC90E00E948300FFCF9091C00095FF0D
:1000A000FCCF8093C60008951F920F920FB60F9257
:1000B00011242F933F934F935F936F937F938F936D
:1000C0009F93AF93BF93EF93FF938091C60080936C
:1000D000000180E490E00E944D008091000190E0DA
:1000E0000E944D00FF91EF91BF91AF919F918F9131
:1000F0007F916F915F914F913F912F910F900FBE24
:100100000F901F901895E2ECF0E020812F73208370
:1001100022E02093C0009093C5008093C40086E045
:100120008083E1ECF0E088E18083789480818068CE
:0801300080830895F894FFCFCD
:00000001FF
